:020000020000FC
:020000004EC1EF
:0200040064C0D6
:0200080064C0D2
:02000C00189545
:02001000189541
:0200140018953D
:02001800189539
:02001C00189535
:02002000189531
:0200240018952D
:02002800189529
:02002C000AC107
:02003000189521
:0200340018951D
:02003800189519
:02003C0018C1E9
:02004000189511
:0200440018950D
:02004800189509
:02004C00189505
:02005000189501
:020054001895FD
:020058001895F9
:02005C000BC1D6
:020060001895F1
:020064001895ED
:100068004092A7080092A8084F900F904092A908C4
:100078000092AA084090A7080090A808FF93EF9361
:10008800DF93CF93BF93AF939F938F937F936F9398
:100098005F934F933F931F930F93FF925F924F92FB
:1000A8000F924090A9080090AA080F924F92409092
:1000B800A7080090A8080F924F9200D04F900F9079
:1000C8004F900F90089520611895AFEAB8E0EE249C
:1000D80044981BB9000086B193B1449A8F709295E9
:1000E800907F892BD82E0000000000004498000063
:1000F800000086B193B1449A8F709295907F892BB6
:1001080058E0AE3EB50731F08D9358E0A63BB507F1
:100118000CF4E80E4B9BEACF80E28D938CE58D932F
:100128009E2D8827990F881F990F881F80638D93AC
:100138008827990F881F990F881F990F881F806338
:100148008D938827990F881F990F881F990F881FEB
:1001580080638D9380E28D938CE58D9388279D2D08
:10016800990F881F990F881F80638D938827990F8F
:10017800881F990F881F990F881F80638D93882780
:10018800990F881F990F881F990F881F80638D9377
:1001980088278D93206282E00895AFEAB8E04999F4
:1001A80000005FE154B95FE357B98D91803099F051
:1001B800982F92959F7055B15073952B95B98F7064
:1001C80058B15073852B806288B9000045980000AB
:1001D80049990000EACF55B1507355B958B15073D9
:1001E80058B9459A00004598000050E154B950E3C9
:1001F80057B9589800000000589A08954999000086
:100208005FE154B95FE357B9C895802D8030A1F0FC
:10021800982F319692959F7055B15073952B95B93B
:100228008F7058B15073852B806288B9000045984B
:10023800000049990000E8CF0895FFB65F935090F9
:1002480084006090850016BC581869085C9A5C9A0E
:100258001092850010928400812C912C57E055BB98
:100268005C98FFBE18952C9A2C9818951895509064
:10027800840060908500581869085114610451F091
:1002880080908400909085005D92B3FDB1E06D92FE
:10029800B3FDB1E0189581E38AB9F8948FEF8DBF6B
:1002A80088E08EBF88278DBBA89587E0BB27DD2710
:1002B800FF2780E387B980E188B980E184B980E2CB
:1002C80085B98FEFB82EC82E8BE08093690083E044
:1002D8008DBBF8948827182E812C912C8FE0382E0E
:1002E80080E3482EA0E0B1E0C0E0D1E040E035E096
:1002F80015E280B71BB915E1000000003BB91BB936
:1003080015E300E0A0E0B1E0E0E4FEE0C0E0D1E009
:10031800552700001BB915E1000077271BB93BB929
:1003280015E20000000000000000000000000000CE
:10033800000000001BB90000000000003BB90000ED
:1003480000000000000000000000000000000000A5
:1003580030C000001BB90D9300003BB90027B3FD66
:10036800B1E0000020B6221C221C221C001F000045
:1003780000001BB90000000000003BB900000000AD
:100388000000000020B6221C221C221C001F0000B6
:1003980000001BB90000000000003BB9000000008D
:1003A8000000000020B6221C221C221C001F000096
:1003B80000001BB90000000000003BB95FEFB51654
:1003C800C50631F420B6221C221C221C001F25C0A1
:1003D800B51AC50AB516C50681F000001BB900009C
:1003E800000000003BB90000000000000000000011
:1003F80000000000000000007DCF1BB900000000D5
:1004080000003BB91C9BF2CF0000000000002C98B4
:1004180000000000000000006DCF1BB900000000C4
:1004280000003BB9000000000000000020B6221CBC
:10043800221C221C001F000000001BB90000000045
:1004480000003BB9000000000000000020B6221C9C
:10045800221C221C001F000000001BB90000000025
:1004680000003BB9000000000000000020B6221C7C
:10047800221C221C001F000000001BB90000000005
:1004880000003BB9E850F04039F0000020B6221CCB
:10049800221C221C001F5ECF20B6221C221C221CFC
:1004A800001FFEE0E0E41BB90D93B3FDB1E00000CE
:1004B8003BB9000000000000000000004A991ACF74
:1004C800000000004B9916CF00DEDE1481F456E8D8
:1004D800D51609F412C057E8D51609F436C15DE9F6
:1004E800D51609F438C15CE9D51609F43AC1ECE728
:1004F800F7E084DE52DEA895FDCE1BB915E10000B9
:1005080000003BB91BB915E307E0A0E0B1E0E0E467
:10051800FEE0C0E0D1E0552700001BB915E100005E
:1005280077271BB93BB915E25FE154B95FE357B9C7
:10053800000000000000000000001BB900000000DF
:1005480000003BB9000000000000000000000000AF
:1005580000000000000051C01BB90D9300003BB91A
:100568000027B3FDB1E0000020B6221C221C221C8B
:10057800001F000000001BB90000000073953BB984
:10058800000000000000000020B6221C221C221CD3
:10059800001F59B100001BB9567019F589913BB974
:1005A800D3FDD1E0982F000020B6221C221C221C6B
:1005B800001F92959F701BB955B15073952B3BB98D
:1005C80095B98F7058B1507320B6221C221C221C7A
:1005D800001F852B80621BB988B9000045983BB97C
:1005E80023C03BB9000000000000000020B6221C18
:1005F800221C221C001F000000001BB90000000084
:1006080000003BB9000000000000000020B6221CDA
:10061800221C221C001F000000001BB90000000063
:1006280000003BB9000000000000000020B6221CBA
:10063800221C221C001F000000001BB90000000043
:1006480000003BB9000000000000000020B6221C9A
:10065800221C221C001F000000001BB90000000023
:1006680000003BB9000000000000000020B6221C7A
:10067800221C221C001F000000001BB90000000003
:1006880000003BB9E850F04039F0000020B6221CC9
:10069800221C221C001F60CF20B6221C221C221CF8
:1006A800001FFEE0E0E41BB90D93B3FDB1E00000CC
:1006B8003BB900000000000000000000000000003E
:1006C80000000000000000001BB959B1000056707E
:1006D8003BB949F0000000000000000000000000E5
:1006E80000000000F1CF8894CA17DB07A9F08991B0
:1006F800D3FDD1E0982F92959F7055B11BB95073D7
:10070800952B95B93BB98F7058B15073852B806282
:1007180088B900004598D8CF55B1507355B958B12C
:10072800507358B91BB950E154B950E33BB957B9A4
:1007380058980000589A00000000000000005FEF81
:10074800B516C50609F02C9AD5CD6EEF7FEFB62EFB
:10075800C72ED3CECFCD67E37FEFB62EC72E2C9A08
:10076800C9CDE0E9F7E04ADD36DDC4CD90E086E0AA
:10077800F894C0CD4572726F723A2042616420636A
:100788006F6D6D616E6420005245414459004255B9
:0A0798005359000041424F52540033
:00000001FF
